:020000040000FA
:060000000A128A110C280F
:10000800FE00030EF1000A08F2000A128A118B287A
:100018000A128A110F2883010A128A1161280130F5
:100028008316031788008901FF30831603138500A0
:1000380070308F040F149F131F129F128312031323
:100048001F083F3980389F001F08C33914389F00A4
:100058001F142130F300F30B2F2883160313071501
:100068008714FF3092003F30831203139705170857
:10007800F0390C3897000F3095001D08F0390C380E
:100088009D000F309B00CF3097051D129D128C10DC
:100098000330920412158C1C522853284F288C10B8
:1000A8008316031307118710831203130C13831687
:1000B80003130C170B178B1708000A128A11132049
:1000C8000A128A11831203139F186B286C2866285A
:1000D8001F0CF400740C0F39013A031D742875289D
:1000E8007C28C3309F052130F400F40B7928802840
:1000F8001F08C33904389F002130F400F40B82280C
:10010800831203139F1466280A128A110C2883127B
:1001180003131F0CF000700C0F39003A031D9528CB
:1001280096289D281E08F0000310700C7C3E950050
:10013800AC281F0CF000700C0F39013A031DA528DC
:10014800A628AC281E08F0000310700C7C3E9B000B
:100158000C1372088A00710E8300FE0E7E0E0900D1
:04400E00C420FF3F8C
:00000001FF
